{"abi":[{"type":"constructor","inputs":[{"name":"_seller","type":"address","internalType":"address"}],"stateMutability":"payable"},{"type":"function","name":"balanceOf","inputs":[],"outputs":[{"name":"","type":"uint256","internalType":"uint256"}],"stateMutability":"view"},{"type":"function","name":"buyer","inputs":[],"outputs":[{"name":"","type":"address","internalType":"address"}],"stateMutability":"view"},{"type":"function","name":"isLocked","inputs":[],"outputs":[{"name":"","type":"bool","internalType":"bool"}],"stateMutability":"view"},{"type":"function","name":"refundBuyer","inputs":[],"outputs":[],"stateMutability":"nonpayable"},{"type":"function","name":"releaseFunds","inputs":[],"outputs":[],"stateMutability":"nonpayable"},{"type":"function","name":"seller","inputs":[],"outputs":[{"name":"","type":"address","internalType":"address"}],"stateMutability":"view"}],"bytecode":{"object":"0x60806040526040516103ef3803806103ef83398101604081905260209160a2565b6000341160665760405162461bcd60e51b815260206004820152601060248201526f11195c1bdcda5d081c995c5d5a5c995960821b604482015260640160405180910390fd5b600080546001600160a01b03191633179055600180546001600160a81b0319166001600160a01b039290921691909117600160a01b17905560d0565b60006020828403121560b357600080fd5b81516001600160a01b038116811460c957600080fd5b9392505050565b610310806100df6000396000f3fe608060405234801561001057600080fd5b50600436106100625760003560e01c806308551a531461006757806369d89575146100975780637150d8ae146100a1578063722713f7146100b4578063a4e2d634146100c2578063e8a61cc8146100e6575b600080fd5b60015461007a906001600160a01b031681565b6040516001600160a01b0390911681526020015b60405180910390f35b61009f6100ee565b005b60005461007a906001600160a01b031681565b60405147815260200161008e565b6001546100d690600160a01b900460ff1681565b604051901515815260200161008e565b61009f6101e7565b6000546001600160a01b0316331461014d5760405162461bcd60e51b815260206004820152601c60248201527f4f6e6c792062757965722063616e2072656c656173652066756e64730000000060448201526064015b60405180910390fd5b600154600160a01b900460ff1661019f5760405162461bcd60e51b8152602060048201526016602482015275119d5b991cc8185b1c9958591e481c995b19585cd95960521b6044820152606401610144565b6001805460ff60a01b1981169091556040516001600160a01b03909116904780156108fc02916000818181858888f193505050501580156101e4573d6000803e3d6000fd5b50565b6001546001600160a01b031633146102415760405162461bcd60e51b815260206004820152601c60248201527f4f6e6c792073656c6c65722063616e20726566756e64206275796572000000006044820152606401610144565b600154600160a01b900460ff166102935760405162461bcd60e51b8152602060048201526016602482015275119d5b991cc8185b1c9958591e481c995b19585cd95960521b6044820152606401610144565b6001805460ff60a01b19169055600080546040516001600160a01b03909116914780156108fc02929091818181858888f193505050501580156101e4573d6000803e3d6000fdfea264697066735822122095edce630eb1da7c30dd992f7ac79a3cfffcad20304f20e409e15f3eec76918664736f6c634300081b0033","linkReferences":{}},"methodIdentifiers":{"balanceOf()":"722713f7","buyer()":"7150d8ae","isLocked()":"a4e2d634","refundBuyer()":"e8a61cc8","releaseFunds()":"69d89575","seller()":"08551a53"},"id":15}